{
  "contractName": "BallotBox",
  "abi": [
    {
      "inputs": [
        {
          "internalType": "string",
          "name": "_electionName",
          "type": "string"
        },
        {
          "internalType": "uint256",
          "name": "_registrationDeadline",
          "type": "uint256"
        },
        {
          "internalType": "uint256",
          "name": "_votingDeadline",
          "type": "uint256"
        },
        {
          "internalType": "string[]",
          "name": "_candidateNames",
          "type": "string[]"
        }
      ],
      "stateMutability": "nonpayable",
      "type": "constructor"
    },
    {
      "anonymous": false,
      "inputs": [
        {
          "indexed": true,
          "internalType": "address",
          "name": "voter",
          "type": "address"
        },
        {
          "indexed": false,
          "internalType": "uint256",
          "name": "candidateIndex",
          "type": "uint256"
        }
      ],
      "name": "VoteCast",
      "type": "event"
    },
    {
      "inputs": [
        {
          "internalType": "uint256",
          "name": "",
          "type": "uint256"
        }
      ],
      "name": "candidates",
      "outputs": [
        {
          "internalType": "string",
          "name": "name",
          "type": "string"
        },
        {
          "internalType": "uint256",
          "name": "voteCount",
          "type": "uint256"
        }
      ],
      "stateMutability": "view",
      "type": "function"
    },
    {
      "inputs": [],
      "name": "electionName",
      "outputs": [
        {
          "internalType": "string",
          "name": "",
          "type": "string"
        }
      ],
      "stateMutability": "view",
      "type": "function"
    },
    {
      "inputs": [],
      "name": "owner",
      "outputs": [
        {
          "internalType": "address",
          "name": "",
          "type": "address"
        }
      ],
      "stateMutability": "view",
      "type": "function"
    },
    {
      "inputs": [],
      "name": "registrationDeadline",
      "outputs": [
        {
          "internalType": "uint256",
          "name": "",
          "type": "uint256"
        }
      ],
      "stateMutability": "view",
      "type": "function"
    },
    {
      "inputs": [
        {
          "internalType": "address",
          "name": "",
          "type": "address"
        }
      ],
      "name": "voters",
      "outputs": [
        {
          "internalType": "bytes32",
          "name": "biometricData",
          "type": "bytes32"
        },
        {
          "internalType": "bool",
          "name": "hasVoted",
          "type": "bool"
        }
      ],
      "stateMutability": "view",
      "type": "function"
    },
    {
      "inputs": [],
      "name": "votingDeadline",
      "outputs": [
        {
          "internalType": "uint256",
          "name": "",
          "type": "uint256"
        }
      ],
      "stateMutability": "view",
      "type": "function"
    },
    {
      "inputs": [
        {
          "internalType": "bytes32",
          "name": "_encryptedBiometricData",
          "type": "bytes32"
        }
      ],
      "name": "registerVoter",
      "outputs": [],
      "stateMutability": "nonpayable",
      "type": "function"
    },
    {
      "inputs": [
        {
          "internalType": "uint256",
          "name": "_candidateIndex",
          "type": "uint256"
        }
      ],
      "name": "castVote",
      "outputs": [],
      "stateMutability": "nonpayable",
      "type": "function"
    }
  ],
  "bytecode": "0x608060405234801562000010575f80fd5b50604051620015ed380380620015ed8339818101604052810190620000369190620003f3565b335f806101000a81548173ffffffffffffffffffffffffffffffffffffffff021916908373ffffffffffffffffffffffffffffffffffffffff1602179055508360019081620000869190620006ce565b5082600281905550816003819055505f5b8151811015620001335760046040518060400160405280848481518110620000c457620000c3620007b2565b5b602002602001015181526020015f815250908060018154018082558091505060019003905f5260205f2090600202015f909190919091505f820151815f019081620001109190620006ce565b5060208201518160010155505080806200012a906200080c565b91505062000097565b505050505062000858565b5f604051905090565b5f80fd5b5f80fd5b5f80fd5b5f80fd5b5f601f19601f8301169050919050565b7f4e487b71000000000000000000000000000000000000000000000000000000005f52604160045260245ffd5b6200019f8262000157565b810181811067ffffffffffffffff82111715620001c157620001c062000167565b5b80604052505050565b5f620001d56200013e565b9050620001e3828262000194565b919050565b5f67ffffffffffffffff82111562000205576200020462000167565b5b620002108262000157565b9050602081019050919050565b5f5b838110156200023c5780820151818401526020810190506200021f565b5f8484015250505050565b5f6200025d6200025784620001e8565b620001ca565b9050828152602081018484840111156200027c576200027b62000153565b5b620002898482856200021d565b509392505050565b5f82601f830112620002a857620002a76200014f565b5b8151620002ba84826020860162000247565b91505092915050565b5f819050919050565b620002d781620002c3565b8114620002e2575f80fd5b50565b5f81519050620002f581620002cc565b92915050565b5f67ffffffffffffffff82111562000318576200031762000167565b5b602082029050602081019050919050565b5f80fd5b5f620003436200033d84620002fb565b620001ca565b9050808382526020820190506020840283018581111562000369576200036862000329565b5b835b81811015620003b757805167ffffffffffffffff8111156200039257620003916200014f565b5b808601620003a1898262000291565b855260208501945050506020810190506200036b565b5050509392505050565b5f82601f830112620003d857620003d76200014f565b5b8151620003ea8482602086016200032d565b91505092915050565b5f805f80608085870312156200040e576200040d62000147565b5b5f85015167ffffffffffffffff8111156200042e576200042d6200014b565b5b6200043c8782880162000291565b94505060206200044f87828801620002e5565b93505060406200046287828801620002e5565b925050606085015167ffffffffffffffff8111156200048657620004856200014b565b5b6200049487828801620003c1565b91505092959194509250565b5f81519050919050565b7f4e487b71000000000000000000000000000000000000000000000000000000005f52602260045260245ffd5b5f6002820490506001821680620004ef57607f821691505b602082108103620005055762000504620004aa565b5b50919050565b5f819050815f5260205f209050919050565b5f6020601f8301049050919050565b5f82821b905092915050565b5f60088302620005697fffffffffffffffffffffffffffffffffffffffffffffffffffffffffffffffff826200052c565b6200057586836200052c565b95508019841693508086168417925050509392505050565b5f819050919050565b5f620005b6620005b0620005aa84620002c3565b6200058d565b620002c3565b9050919050565b5f819050919050565b620005d18362000596565b620005e9620005e082620005bd565b84845462000538565b825550505050565b5f90565b620005ff620005f1565b6200060c818484620005c6565b505050565b5b818110156200063357620006275f82620005f5565b60018101905062000612565b5050565b601f82111562000682576200064c816200050b565b62000657846200051d565b8101602085101562000667578190505b6200067f62000676856200051d565b83018262000611565b50505b505050565b5f82821c905092915050565b5f620006a45f198460080262000687565b1980831691505092915050565b5f620006be838362000693565b9150826002028217905092915050565b620006d982620004a0565b67ffffffffffffffff811115620006f557620006f462000167565b5b620007018254620004d7565b6200070e82828562000637565b5f60209050601f83116001811462000744575f84156200072f578287015190505b6200073b8582620006b1565b865550620007aa565b601f19841662000754866200050b565b5f5b828110156200077d5784890151825560018201915060208501945060208101905062000756565b868310156200079d578489015162000799601f89168262000693565b8355505b6001600288020188555050505b505050505050565b7f4e487b71000000000000000000000000000000000000000000000000000000005f52603260045260245ffd5b7f4e487b71000000000000000000000000000000000000000000000000000000005f52601160045260245ffd5b5f6200081882620002c3565b91507fffffffffffffffffffffffffffffffffffffffffffffffffffffffffffffffff82036200084d576200084c620007df565b5b600182019050919050565b610d8780620008665f395ff3fe608060405234801561000f575f80fd5b5060043610610086575f3560e01c8063793c5d2111610059578063793c5d211461011357806385e8e7a71461012f5780638da5cb5b1461014d578063a3ec138d1461016b57610086565b8063036ee8501461008a57806311184392146100a85780633477ee2e146100c65780633eb76b9c146100f7575b5f80fd5b61009261019c565b60405161009f91906107a6565b60405180910390f35b6100b06101a2565b6040516100bd91906107a6565b60405180910390f35b6100e060048036038101906100db91906107ed565b6101a8565b6040516100ee9291906108a2565b60405180910390f35b610111600480360381019061010c91906107ed565b61025d565b005b61012d60048036038101906101289190610903565b61051d565b005b6101376106b3565b604051610144919061092e565b60405180910390f35b61015561073f565b604051610162919061098d565b60405180910390f35b610185600480360381019061018091906109d0565b610762565b604051610193929190610a24565b60405180910390f35b60035481565b60025481565b600481815481106101b7575f80fd5b905f5260205f2090600202015f91509050805f0180546101d690610a78565b80601f016020809104026020016040519081016040528092919081815260200182805461020290610a78565b801561024d5780601f106102245761010080835404028352916020019161024d565b820191905f5260205f20905b81548152906001019060200180831161023057829003601f168201915b5050505050908060010154905082565b60035442106102a1576040517f08c379a000000000000000000000000000000000000000000000000000000000815260040161029890610af2565b60405180910390fd5b60025442106102e5576040517f08c379a00000000000000000000000000000000000000000000000000000000081526004016102dc90610b5a565b60405180910390fd5b60055f3373ffffffffffffffffffffffffffffffffffffffff1673ffffffffffffffffffffffffffffffffffffffff1681526020019081526020015f206001015f9054906101000a900460ff1615610372576040517f08c379a000000000000000000000000000000000000000000000000000000000815260040161036990610bc2565b60405180910390fd5b60048054905081106103b9576040517f08c379a00000000000000000000000000000000000000000000000000000000081526004016103b090610c2a565b60405180910390fd5b5f801b60055f3373ffffffffffffffffffffffffffffffffffffffff1673ffffffffffffffffffffffffffffffffffffffff1681526020019081526020015f205f01540361043c576040517f08c379a000000000000000000000000000000000000000000000000000000000815260040161043390610c92565b60405180910390fd5b600160055f3373ffffffffffffffffffffffffffffffffffffffff1673ffffffffffffffffffffffffffffffffffffffff1681526020019081526020015f206001015f6101000a81548160ff021916908315150217905550600481815481106104a8576104a7610cb0565b5b905f5260205f2090600202016001015f8154809291906104c790610d0a565b91905055503373ffffffffffffffffffffffffffffffffffffffff167fa36cc2bebb74db33e9f88110a07ef56e1b31b24b4c4f51b54b1664266e29f45b8260405161051291906107a6565b60405180910390a250565b6003544210610561576040517f08c379a000000000000000000000000000000000000000000000000000000000815260040161055890610af2565b60405180910390fd5b60025442106105a5576040517f08c379a000000000000000000000000000000000000000000000000000000000815260040161059c90610b5a565b60405180910390fd5b60055f3373ffffffffffffffffffffffffffffffffffffffff1673ffffffffffffffffffffffffffffffffffffffff1681526020019081526020015f206001015f9054906101000a900460ff1615610632576040517f08c379a000000000000000000000000000000000000000000000000000000000815260040161062990610bc2565b60405180910390fd5b60405180604001604052808281526020015f151581525060055f3373ffffffffffffffffffffffffffffffffffffffff1673ffffffffffffffffffffffffffffffffffffffff1681526020019081526020015f205f820151815f01556020820151816001015f6101000a81548160ff02191690831515021790555090505050565b600180546106c090610a78565b80601f01602080910402602001604051908101604052809291908181526020018280546106ec90610a78565b80156107375780601f1061070e57610100808354040283529160200191610737565b820191905f5260205f20905b81548152906001019060200180831161071a57829003601f168201915b505050505081565b5f8054906101000a900473ffffffffffffffffffffffffffffffffffffffff1681565b6005602052805f5260405f205f91509050805f015490806001015f9054906101000a900460ff16905082565b5f819050919050565b6107a08161078e565b82525050565b5f6020820190506107b95f830184610797565b92915050565b5f80fd5b6107cc8161078e565b81146107d6575f80fd5b50565b5f813590506107e7816107c3565b92915050565b5f60208284031215610802576108016107bf565b5b5f61080f848285016107d9565b91505092915050565b5f81519050919050565b5f82825260208201905092915050565b5f5b8381101561084f578082015181840152602081019050610834565b5f8484015250505050565b5f601f19601f8301169050919050565b5f61087482610818565b61087e8185610822565b935061088e818560208601610832565b6108978161085a565b840191505092915050565b5f6040820190508181035f8301526108ba818561086a565b90506108c96020830184610797565b9392505050565b5f819050919050565b6108e2816108d0565b81146108ec575f80fd5b50565b5f813590506108fd816108d9565b92915050565b5f60208284031215610918576109176107bf565b5b5f610925848285016108ef565b91505092915050565b5f6020820190508181035f830152610946818461086a565b905092915050565b5f73ffffffffffffffffffffffffffffffffffffffff82169050919050565b5f6109778261094e565b9050919050565b6109878161096d565b82525050565b5f6020820190506109a05f83018461097e565b92915050565b6109af8161096d565b81146109b9575f80fd5b50565b5f813590506109ca816109a6565b92915050565b5f602082840312156109e5576109e46107bf565b5b5f6109f2848285016109bc565b91505092915050565b610a04816108d0565b82525050565b5f8115159050919050565b610a1e81610a0a565b82525050565b5f604082019050610a375f8301856109fb565b610a446020830184610a15565b9392505050565b7f4e487b71000000000000000000000000000000000000000000000000000000005f52602260045260245ffd5b5f6002820490506001821680610a8f57607f821691505b602082108103610aa257610aa1610a4b565b5b50919050565b7f566f74696e672068617320656e6465642e0000000000000000000000000000005f82015250565b5f610adc601183610822565b9150610ae782610aa8565b602082019050919050565b5f6020820190508181035f830152610b0981610ad0565b9050919050565b7f526567697374726174696f6e2068617320656e6465642e0000000000000000005f82015250565b5f610b44601783610822565b9150610b4f82610b10565b602082019050919050565b5f6020820190508181035f830152610b7181610b38565b9050919050565b7f596f75206861766520616c726561647920766f7465642e0000000000000000005f82015250565b5f610bac601783610822565b9150610bb782610b78565b602082019050919050565b5f6020820190508181035f830152610bd981610ba0565b9050919050565b7f496e76616c69642063616e64696461746520696e6465782e00000000000000005f82015250565b5f610c14601883610822565b9150610c1f82610be0565b602082019050919050565b5f6020820190508181035f830152610c4181610c08565b9050919050565b7f596f75206d7573742072656769737465722066697273742e00000000000000005f82015250565b5f610c7c601883610822565b9150610c8782610c48565b602082019050919050565b5f6020820190508181035f830152610ca981610c70565b9050919050565b7f4e487b71000000000000000000000000000000000000000000000000000000005f52603260045260245ffd5b7f4e487b71000000000000000000000000000000000000000000000000000000005f52601160045260245ffd5b5f610d148261078e565b91507fffffffffffffffffffffffffffffffffffffffffffffffffffffffffffffffff8203610d4657610d45610cdd565b5b60018201905091905056fea2646970667358221220886cdec921226f12a066fcf818f7febf6e01e45df8825c6e57fbb331b900019664736f6c63430008150033",
  "immutableReferences": {},
  "source": "// SPDX-License-Identifier: MIT\npragma solidity ^0.8.0;\n\ncontract BallotBox {\n    // Define the owner of the contract (election authority).\n    address public owner;\n\n    // Define the structure of a voter.\n    struct Voter {\n        bytes32 biometricData;  // Encrypted biometric data\n        bool hasVoted;          // Indicates if the voter has cast a vote\n    }\n\n    // Define the structure of a candidate.\n    struct Candidate {\n        string name;\n        uint256 voteCount;\n    }\n\n    // Define the election parameters.\n    string public electionName;\n    uint256 public registrationDeadline;\n    uint256 public votingDeadline;\n\n    // Store the list of candidates.\n    Candidate[] public candidates;\n\n    // Store the mapping of voters.\n    mapping(address => Voter) public voters;\n\n    // Event to announce when a vote is cast.\n    event VoteCast(address indexed voter, uint256 candidateIndex);\n\n    // Modifiers for access control.\n    modifier onlyOwner() {\n        require(msg.sender == owner, \"Only the owner can call this function.\");\n        _;\n    }\n\n    modifier canVote() {\n        require(block.timestamp < votingDeadline, \"Voting has ended.\");\n        require(block.timestamp < registrationDeadline, \"Registration has ended.\");\n        require(!voters[msg.sender].hasVoted, \"You have already voted.\");\n        _;\n    }\n\n    // Constructor to initialize the contract.\n    constructor(\n        string memory _electionName,\n        uint256 _registrationDeadline,\n        uint256 _votingDeadline,\n        string[] memory _candidateNames\n    ) {\n        owner = msg.sender;\n        electionName = _electionName;\n        registrationDeadline = _registrationDeadline;\n        votingDeadline = _votingDeadline;\n        \n        // Initialize the list of candidates.\n        for (uint256 i = 0; i < _candidateNames.length; i++) {\n            candidates.push(Candidate({\n                name: _candidateNames[i],\n                voteCount: 0\n            }));\n        }\n    }\n\n    // Function to register a voter and store their encrypted biometric data.\n    function registerVoter(bytes32 _encryptedBiometricData) public canVote {\n        voters[msg.sender] = Voter({\n            biometricData: _encryptedBiometricData,\n            hasVoted: false\n        });\n    }\n\n    // Function to cast a vote for a candidate.\n    function castVote(uint256 _candidateIndex) public canVote {\n        require(_candidateIndex < candidates.length, \"Invalid candidate index.\");\n        require(voters[msg.sender].biometricData != 0, \"You must register first.\");\n\n        // Mark the voter as having voted.\n        voters[msg.sender].hasVoted = true;\n\n        // Increment the candidate's vote count.\n        candidates[_candidateIndex].voteCount++;\n\n        // Emit a VoteCast event.\n        emit VoteCast(msg.sender, _candidateIndex);\n    }\n}",
  "sourcePath": "D:\\Biometric-voting\\Ballot\\contracts\\Ballot.sol",
  "compiler": {
    "name": "solc",
    "version": "0.8.21+commit.d9974bed.Emscripten.clang"
  },
  "schemaVersion": "3.4.16",
  "updatedAt": "2023-10-30T10:11:04.533Z",
  "devdoc": {
    "kind": "dev",
    "methods": {},
    "version": 1
  },
  "userdoc": {
    "kind": "user",
    "methods": {},
    "version": 1
  }
}